:100000000C9462000C948A000C948A000C948A0070
:100010000C948A000C948A000C948A000C948A0038
:100020000C948A000C948A000C948A000C948A0028
:100030000C948A000C948A000C948A000C948A0018
:100040000C94EE030C948A000C945E040C94380417
:100050000C948A000C948A000C948A000C948A00F8
:100060000C948A000C948A000000000023002600F3
:10007000290000000000240027002A0000000000E2
:10008000250028002B0004040404040404040202D4
:100090000202020203030303030301020408102007
:1000A0004080010204081020010204081020000012
:1000B0000008000201000003040700000000000027
:1000C0000000650911241FBECFEFD8E0DEBFCDBF11
:1000D00021E0A6E2B1E001C01D92A33DB207E1F725
:1000E00011E0A0E0B1E0EEEEF7E102C005900D9264
:1000F000A632B107D9F710E0C2E6D0E004C02197DC
:10010000FE010E94F309C136D107C9F70E943807E2
:100110000C94F50B0C940000CF92DF92EF92FF92BB
:100120000F931F93CF93DF936C017A018B01C0E093
:10013000D0E0CE15DF0581F0D8016D918D01D6019B
:10014000ED91FC910190F081E02DC6010995892B7C
:1001500011F02196EECF7E01C701DF91CF911F9163
:100160000F91FF90EF90DF90CF900895089580E079
:1001700090E00895FC01538D448D252F30E0842FAD
:1001800090E0821B930B541710F0CF9608950197BF
:100190000895FC01918D828D981761F0828DDF01A9
:1001A000A80FB11D5D968C91928D9F5F9F73928F6A
:1001B00090E008958FEF9FEF0895FC01918D828D5F
:1001C000981731F0828DE80FF11D858D90E008952C
:1001D0008FEF9FEF0895FC01918D228D892F90E084
:1001E000805C9F4F821B91098F739927089582E34A
:1001F00091E00E94EB0021E0892B09F420E0822F9E
:100200000895FC01848DDF01A80FB11DA35ABF4FD3
:100210002C91848D90E001968F739927848FA68905
:10022000B7892C93A089B1898C91837080648C9359
:10023000938D848D981306C00288F389E02D808108
:100240008F7D80830895EF92FF920F931F93CF933A
:10025000DF93EC0181E0888F9B8D8C8D981305C016
:10026000E889F989808185FD26C0F62E0B8D10E086
:100270000F5F1F4F0F731127E02E8C8DE8120CC0FB
:100280000FB607FCFACFE889F989808185FFF5CFA1
:10029000CE010E940101F1CF8B8DFE01E80FF11D0F
:1002A000E35AFF4FF0829FB7F8940B8FEA89FB89DE
:1002B000808180620AC09FB7F894EE89FF896083CD
:1002C000E889F98980818370806480839FBF81E0A1
:1002D00090E0DF91CF911F910F91FF90EF900895E3
:1002E000CF93DF93EC01888D8823C9F0EA89FB89DD
:1002F000808185FD05C0A889B9898C9186FD0FC0D4
:100300000FB607FCF5CF808185FFF2CFA889B989A8
:100310008C9185FFEDCFCE010E940101E7CFDF91E7
:10032000CF91089580E090E0892B29F00E94F7009A
:1003300081110C9400000895CF93DF93EC01888124
:100340009981009711F00E94910A198218821D82EA
:100350001C821B821A82DF91CF9108950E94E00BCC
:100360000F931F93CF93DF93EC01888199810097BE
:1003700029F02A813B812617370788F48B016F5FAC
:100380007F4F0E941A0B009761F0998388831B832B
:100390000A832C813D81232B11F4FC01108281E022
:1003A00001C080E0DF91CF911F910F910895EF92EE
:1003B000FF920F931F93CF93DF93EC017B018A0190
:1003C000BA010E94B001811104C0CE010E949C01BB
:1003D00007C01D830C83B701888199810E94EE0BB1
:1003E000CE01DF91CF911F910F91FF90EF90089573
:1003F00008958EBD00000DB407FEFDCF8EB50895A3
:100400008CBD9DBD08951F93CF93DF93EC01162FF4
:1004100083E590E00E94000260E08E850E94120554
:10042000812F80680E94F90180E00E94F901182F55
:1004300061E08E850E941205812FDF91CF911F917F
:1004400008950F931F93CF93DF93EC01062F142F82
:1004500083E590E00E94000260E08E850E94120514
:10046000802F0E94F901812F0E94F90161E08E85A1
:10047000DF91CF911F910F910C9412052F923F9213
:100480004F925F926F927F928F929F92AF92BF92A4
:10049000CF92DF92EF92FF920F931F93CF93DF9350
:1004A000CDB7DEB72B970FB6F894DEBF0FBECDBF2A
:1004B000413508F00AC1342E4B015C016CE10E9409
:1004C0000302482F4F776CE1C5010E9421024424AA
:1004D000439432E0431691F083E04816E1F091E056
:1004E0004912F5C083E989833320D1F081E0F4011A
:1004F0009081953008F480E0512C17C0F5E9F9831C
:10050000332081F081E0F4019081983008F480E09C
:1005100053E0552E0AC087E9898346E0542E04C073
:10052000512C02C033E0532E80E0D32CF8E05F9EC4
:10053000D0181124D7FCD12C882321F098E89B8374
:1005400033E001C032E021E09D2D977009F420E0F6
:100550009D2D959595959595290F31F4882309F44E
:1005600091C038E0D30E8EC0811102C094E001C06A
:1005700093E0291708F4922FE52DF0E03196E80D6D
:10058000F91D232F4191A1E0B0E0AC0FBD1FA20FD8
:10059000B11D4C932F5F422F431B491798F3DECFB9
:1005A0008111DDC09FE19D150CF493C080E2D82E2F
:1005B00090E79A839B818C8189279D8189279E81E1
:1005C00089278F839E01285F3F4F47E0BE016F5F01
:1005D0007F4FC5010E9473058111A2C01A86E3E016
:1005E000EB87CE0107963C0129E0222ECA844C2DD0
:1005F0004295407F4C0D6AE1C5010E942102CE0167
:100600000A967C018E01055F1F4F9301422DBE01AA
:100610006F5F7F4FC5010E94BF05182F823009F020
:10062000BFCF6CE1C5010E94030285FD98C08F71A8
:1006300009F480E2282F30E04D2DDD0C550B4217D8
:1006400053070CF044C0D82E85958595859591E08B
:10065000980F422F477081E009F480E0890FE1E0B4
:10066000F0E0EC0FFD1FE80FF11D2150310927705C
:10067000332781E090E001C0880F2A95EAF7908146
:10068000892B80838FE18D150CF492CF9D2D97706F
:100690009A878D2D8595859585958E5F292FE0E12B
:1006A0008E9F200D11242A8321E0911101C020E0AA
:1006B000222E280E66246394712C6C0E7D1E680E0B
:1006C000711CF9E0F81BFB8791CF16E048C015E0DC
:1006D00046C08B81883809F43FC082E094E0E52D64
:1006E000F0E03196E80DF91D980FA1E0B0E0AC0FF5
:1006F000BD1FA80FB11D2C9121938F5F8913F5CFDA
:100700008B85833029F58A85811122C09E012D5F5A
:100710003F4F41E0B301C5010E947305882311F0EA
:10072000182F1DC09B81F3018181981313C09C81F8
:10073000828198130FC0808182FF02C04394C9CE8A
:10074000F4018387842D880F480E4394408207C0AC
:1007500011E005C017E003C083E093E0C0CF812F14
:100760002B960FB6F894DEBF0FBECDBFDF91CF91B1
:100770001F910F91FF90EF90DF90CF90BF90AF90BF
:100780009F908F907F906F905F904F903F902F90B1
:1007900008953FB7F89480912E0190912F01A09178
:1007A0003001B091310126B5A89B05C02F3F19F04B
:1007B0000196A11DB11D3FBFBA2FA92F982F8827E1
:1007C000820F911DA11DB11DBC01CD0142E0660F3C
:1007D000771F881F991F4A95D1F708951F920F928E
:1007E0000FB60F9211242F933F938F939F93AF9344
:1007F000BF9380912A0190912B01A0912C01B0917F
:100800002D013091290123E0230F2D3720F401968B
:10081000A11DB11D05C026E8230F0296A11DB11D23
:100820002093290180932A0190932B01A0932C01FE
:10083000B0932D0180912E0190912F01A091300154
:10084000B09131010196A11DB11D80932E019093AD
:100850002F01A0933001B0933101BF91AF919F91CF
:100860008F913F912F910F900FBE0F901F90189571
:100870001F920F920FB60F9211242F933F934F9315
:100880005F936F937F938F939F93AF93BF93EF93F8
:10089000FF9382E391E00E940101FF91EF91BF91EC
:1008A000AF919F918F917F916F915F914F913F9108
:1008B0002F910F900FBE0F901F9018951F920F92BF
:1008C0000FB60F9211242F938F939F93EF93FF9363
:1008D000E0914201F09143018081E0914801F09163
:1008E000490182FD12C0908180914B018F5F8F730F
:1008F00020914C01821751F0E0914B01F0E0EE5C49
:10090000FE4F958F80934B0101C08081FF91EF9145
:100910009F918F912F910F900FBE0F901F90189560
:10092000BC016E5F7F4FDC01ED91FC910190F08185
:10093000E02D40E0099591E0811190E0892F089524
:10094000009769F0FC0101900020E9F73197AF01B1
:10095000481B590BBC0182E391E00C948C0080E0B1
:1009600090E008958F929F92AF92BF92CF92DF92C4
:10097000EF92FF920E94C9034B015C0182E3C82EF3
:10098000D12CE12CF12C0E94C903DC01CB01881988
:100990009909AA09BB09883E9340A105B10598F3BE
:1009A00021E0C21AD108E108F10888EE880E83E040
:1009B000981EA11CB11CC114D104E104F10419F763
:1009C000FF90EF90DF90CF90BF90AF909F908F906F
:1009D0000895833081F028F4813099F08230A1F0BD
:1009E00008958730A9F08830B9F08430D1F480912F
:1009F00080008F7D03C0809180008F77809380007E
:100A0000089584B58F7702C084B58F7D84BD089525
:100A10008091B0008F7703C08091B0008F7D80936C
:100A2000B00008951F93CF93DF93282F30E0F90192
:100A3000E255FF4F8491F901E656FF4FD491F90139
:100A4000EA57FF4FC491CC23C1F0162F81110E94A9
:100A5000E904EC2FF0E0EE0FFF1FE458FF4FA591E3
:100A6000B4919FB7F894111104C08C91D095D823FC
:100A700002C0EC91DE2BDC939FBFDF91CF911F91E1
:100A80000895DF92EF92FF920F931F93CF93DF931E
:100A90008C01F62ED42EE52E83E590E00E94000214
:100AA00060E0F80186850E94120582E10E94F9014A
:100AB000CD2DDE2DCE018F0D911D7C01EC16FD0696
:100AC00021F089910E94F901F9CF61E0F801868552
:100AD0000E941205DF91CF911F910F91FF90EF902F
:100AE000DF900C94F801CF92DF92EF92FF920F9378
:100AF0001F93CF93DF93EC016B01142F790140E03A
:100B000062E00E94210244E06AE0CE010E942102DC
:100B100040E864E1CE010E942102A601612FCE01CE
:100B20000E94410543E062E0CE010E94210208E8F4
:100B300013E16AE0CE010E94030282FF13C040E08D
:100B400062E0CE010E94210264E4CE010E94030211
:100B5000F701808362E4CE010E940302F7018183E2
:100B600080E004C00150110921F783E0DF91CF91AB
:100B70001F910F91FF90EF90DF90CF9008957F929B
:100B80008F929F92AF92BF92CF92DF92EF92FF929D
:100B90000F931F93CF93DF93EC014B01742E5901F8
:100BA000E114F10419F0F701408101C040E0D42EB6
:100BB000F0E1CF9ED00C112440E062E0CE010E9413
:100BC00021024FE768E0CE010E94210240E864E183
:100BD000CE010E942102A401672DCE010E94410591
:100BE0004D2D6AE1CE010E9421024CE062E0CE016F
:100BF0000E9421026AE1CE010E940302482F406850
:100C00006AE1CE010E94210280ED882E87E0982EB5
:100C100068E0CE010E940302982F907341F480FD9A
:100C200004C081E0881A910899F783E072C06CE0F3
:100C3000CE010E940302982E837109F069C0A114AD
:100C4000B10409F45DC00115110509F459C064E14E
:100C5000CE010E940302882EF8018081881508F4D5
:100C600053C08082882009F441C083E590E00E944F
:100C7000000260E08E850E941205DD24DA94D80C13
:100C800082E90E94F901CC20A9F00FEF10E001C029
:100C9000000FCA94EAF782E90E94F901202F2095FB
:100CA000F501908192238023092F082B008388244B
:100CB000839401C0812C282D30E08D1450F48501DF
:100CC000020F131F82E90E94F901F80180838394C7
:100CD000F2CFA20EB31E80E00E94F901F5018083DD
:100CE00061E08E850E9412050E94F80168E1CE0144
:100CF0000E9403028770E114F10411F0F701808370
:100D000093FC04C080E005C084E003C082E001C021
:100D100081E0DF91CF911F910F91FF90EF90DF90D5
:100D2000CF90BF90AF909F908F907F900895AF929B
:100D3000BF92CF92EF92FF920F931F93CF93DF93C7
:100D400000D000D01F92CDB7DEB75C0182E08D836A
:100D500040E064E2C5010E94210240E066E2C50174
:100D60000E94210246E268E4C5010E94210286E257
:100D70008B838D81823038F16CE1C5010E940302C2
:100D8000482F4F776CE1C5010E94210287E08C83D8
:100D9000C12CCE0104967C018E010B5F1F4F9E017A
:100DA0002F5F3F4F41E0BE016D5F7F4FC5010E9445
:100DB000BF0581110BC08D81823039F481E09C81A7
:100DC000911104C008C084E001C081E091E082304C
:100DD00019F090E001C091E0892F0F900F900F90D3
:100DE0000F900F90DF91CF911F910F91FF90EF9097
:100DF000CF90BF90AF900895CF93DF9390E0FC0128
:100E0000E656FF4F2491FC01EA57FF4F8491882357
:100E100061F190E0880F991FFC01EE58FF4FC591DA
:100E2000D491FC01E458FF4FA591B491611109C020
:100E30009FB7F8948881209582238883EC912E2394
:100E40000BC0623061F49FB7F8948881322F3095DF
:100E500083238883EC912E2B2C939FBF06C08FB7E2
:100E6000F894E8812E2B28838FBFDF91CF910895CE
:100E7000CF93DF93CDB7DEB7AD970FB6F894DEBF53
:100E80000FBECDBF789484B5826084BD84B5816087
:100E900084BD85B5826085BD85B5816085BD809145
:100EA0006E00816080936E001092810080918100BD
:100EB00082608093810080918100816080938100B5
:100EC000809180008160809380008091B100846077
:100ED0008093B1008091B00081608093B0008091D8
:100EE0007A00846080937A0080917A008260809397
:100EF0007A0080917A00816080937A0080917A00F4
:100F0000806880937A001092C100E0914201F091D4
:100F1000430182E08083E0913E01F0913F01108225
:100F2000E0914001F09141018FEC808310924A01E1
:100F3000E0914601F091470186E08083E091440111
:100F4000F0914501808180618083E0914401F091BE
:100F50004501808188608083E0914401F0914501E2
:100F6000808180688083E0914401F0914501808117
:100F70008F7D808381E290E00E94F9098C01FC0161
:100F800011821082138212821582148240E050E096
:100F900064E271E00E94D7017801F7E0EF0EF11CE6
:100FA0008CE191E0F801908787838AE0858B8CE063
:100FB000FE013396D801199601900D928A95E1F7BA
:100FC00085E0F801868BDFB6F894809126018111C7
:100FD00027C0E0E9F0E08491E4EAF0E09491E82FA2
:100FE000F0E0EE0FFF1FEE58FF4FA591B491EC918A
:100FF000E92321F461E08AE00E94120561E08AE0C1
:101000000E94FC068CB580618CBD8CB580648CBD63
:1010100061E08DE00E94FC0661E08BE00E94FC062E
:10102000809126018F5F80932601DFBE61E0F80189
:1010300085890E94FC0661E0F80185890E941205FD
:10104000F80186898F3F41F44FE062E0C7010E94BA
:10105000210223E0D22E26C060E00E94FC06F801A7
:10106000268930E0F901E255FF4F8491F901E656F7
:10107000FF4FD490F901EA57FF4FC490CC20D9F02C
:1010800081110E94E904EC2DF0E0EE0FFF1FE859FA
:10109000FF4FA591B491EC91DE2269F0D5CFDA949F
:1010A000DD20F1F00E94B20462E0C7010E94030259
:1010B00084FF16C0F4CF61E0F80186890E94FC0627
:1010C00060E0F80186890E94120583E090E00197B4
:1010D000F1F761E0F80186890E9412050E94B204CE
:1010E00040E064E2C7010E94210240E066E2C701DD
:1010F0000E94210246E268E4C7010E94210240E802
:1011000064E5C7010E94210249EA66E5C7010E9421
:10111000210243E068E5C7010E94210248EE6AE52A
:10112000C7010E94210240E46AE2C7010E94210235
:101130004DE362E2C7010E94210268E2C7010E94FA
:101140000302982F9370933031F0482F436068E288
:10115000C7010E9421028FEFF801878B808F818F5A
:10116000828F838F848F8AE090E0968F858F10A284
:10117000178E10932801009327015E01F8E2AF0E4D
:10118000B11CCE0101967C0186E3382E0091270127
:1011900010912801680197E0C90ED11CC6010E9478
:1011A0009706882309F48EC0F80110A2178EC60195
:1011B0000E949004882309F485C019A618A61BA6CE
:1011C0001AA61DA61CA640E050E064E271E0C5012D
:1011D0000E94D7013801FAE06F0E711C28018EE0E1
:1011E000480E511CF30181913F011BA21AA21DA2BE
:1011F0001CA21FA21EA240E1B70190E00E9492092A
:10120000F70101900020E9F73197AF014E195F090E
:10121000B701CE0182960E94D7018EA19FA18AA01C
:101220009BA081149104B9F00097A9F0CCA4DDA48F
:10123000C80ED91EB601C5010E94B001882359F01D
:1012400028A539A58CA59DA5B401820F931F0E94E6
:10125000EE0BDDA6CCA68AA19BA10E94910A641484
:10126000750409F0BFCF0A151B0571F068A579A5B3
:101270006115710531F04CA55DA5C8010E94D7012B
:1012800003C0C8010E949C0188A599A50E94910AEB
:10129000E0912701F091280144815581608171819D
:1012A00082E391E00E948C0082E291E00E94A0041F
:1012B00019A238A2CE0180960E94A00482E291E099
:1012C0000E94A0040E94920161CFE2E3F1E0138248
:1012D000128288EE93E0A0E0B0E084839583A68339
:1012E000B7838AE091E09183808385EC90E09587D5
:1012F000848784EC90E09787868780EC90E0918BE0
:10130000808B81EC90E0938B828B82EC90E0958BCC
:10131000848B86EC90E0978B868B118E128E138EC9
:10132000148E0895BB27FB015527AA27880F991F04
:10133000AA1FA41710F0A41B83955051B9F7A05D04
:10134000AA3308F0A95DA193009779F7B111B19381
:101350001192CB010C94AC09DC01FC01672F719157
:101360007723E1F7329704C07C916D93708362918B
:10137000AE17BF07C8F308952F923F924F925F9226
:101380006F927F928F929F92AF92BF92CF92DF9295
:10139000EF92FF920F931F93CF93DF93CDB7DEB7FA
:1013A000CA1BDB0B0FB6F894DEBF0FBECDBF09948E
:1013B0002A88398848885F846E847D848C849B84E5
:1013C000AA84B984C884DF80EE80FD800C811B81F3
:1013D000AA81B981CE0FD11D0FB6F894DEBF0FBE22
:1013E000CDBFED010895EE0FFF1F0590F491E02DA4
:1013F00009940F931F93CF93DF938230910510F4DC
:1014000082E090E0E091D101F091D20120E030E063
:10141000A0E0B0E0309719F1408151810281138141
:1014200048175907C8F08417950769F4109731F0E9
:1014300012960C93129713961C9327C00093D10118
:101440001093D20122C02115310519F0421753071C
:1014500018F49A01BD01EF01DF01F801DBCF21157E
:101460003105F9F0281B390B2430310580F48A81CD
:101470009B816115710521F0FB019383828304C078
:101480009093D2018093D101FE01329644C0FE01B7
:10149000E20FF31F819391932250310939832883FE
:1014A0003AC02091CF013091D001232B41F42091FB
:1014B0000201309103013093D0012093CF0120919C
:1014C0000001309101012115310541F42DB73EB7DE
:1014D0004091040150910501241B350BE091CF018F
:1014E000F091D001E217F307A0F42E1B3F0B281751
:1014F000390778F0AC014E5F5F4F2417350748F08D
:101500004E0F5F1F5093D0014093CF018193919371
:1015100002C0E0E0F0E0CF01DF91CF911F910F9189
:101520000895CF93DF93009709F481C0FC013297AF
:1015300013821282A091D101B091D201109781F44F
:1015400020813181820F931F2091CF013091D001F2
:101550002817390751F5F093D001E093CF0167C008
:10156000ED0120E030E0CE17DF0740F44A815B81D7
:101570009E0141155105F1F0EA01F5CFD383C283F5
:1015800040815181840F951FC817D90759F488816C
:101590009981840F951F0296918380838A819B8114
:1015A000938382832115310529F4F093D201E093CE
:1015B000D1013DC0E901FB83EA8349915991C40FF0
:1015C000D51FEC17FD0761F480819181840F951F71
:1015D0000296E90199838883828193819B838A8320
:1015E000E0E0F0E012968D919C911397009719F02E
:1015F000FD01DC01F7CF8D919C9111979D012E5F2C
:101600003F4F820F931F2091CF013091D0012817B7
:10161000390769F4309729F41092D2011092D10160
:1016200002C013821282B093D001A093CF01DF9148
:10163000CF910895A0E0B0E0E0E2FBE00C94C00997
:10164000EC01009721F4CB010E94F909B4C0FC0120
:10165000E60FF71F9C0122503109E217F30708F447
:10166000A8C0D9010D911C91119706171707B0F06A
:101670000530110508F49BC0C80104978617970729
:1016800008F495C002501109061B170B0193119322
:101690006D937C93CF010E94910A89C05B01A01ACF
:1016A000B10A4C01800E911EA091D101B091D201DE
:1016B000612C712CE12CF12C109709F446C08D910E
:1016C0009C911197A815B905B1F56C0142E0C40EC3
:1016D000D11CCA14DB0478F14C018A189B08640100
:1016E00042E0C40ED11C1296BC9012971396AC9196
:1016F000B5E0CB16D10440F0B282A3839182808200
:10170000D9016D937C9309C00E5F1F4F800F911F0D
:10171000F90191838083EB2DFA2FE114F10431F06C
:10172000D7011396FC93EE93129741C0F093D20128
:10173000E093D1013CC06816790608F43C017D01B4
:1017400012960D90BC91A02DB7CF8091CF019091B2
:10175000D00188169906E1F466167706C8F48091E0
:10176000000190910101009741F48DB79EB740911F
:10177000040150910501841B950BE817F907C8F483
:10178000F093D001E093CF01F901718360830FC022
:10179000CB010E94F9097C01009759F0A801BE0114
:1017A0000E94E50BCE010E94910AC70104C0CE0140
:1017B00002C080E090E0CDB7DEB7EEE00C94DC092B
:1017C00081E090E0F8940C94F50BFB01DC0102C081
:1017D00001900D9241505040D8F70895FB01DC0173
:0E17E00001900D920020E1F70895F894FFCFDC
:1017EE000000D30120000000000023018C00BA008D
:1017FE007001EB00C900DD00000000003E029706FC
:06180E0090040D0A000029
:00000001FF
